:020000040800F2
:1000000098080020F10200080D3F0008E13A0008BE
:10001000093F00087D1D00084D4800080000000051
:10002000000000000000000000000000813F000808
:10003000811D0008000000007D3F0008D93F000836
:100040000B0300080B0300080B0300080B03000858
:100050000B0300080B0300080B0300080B03000848
:100060000B0300080B0300080B0300080B03000838
:100070000B0300080B0300080B0300080B03000828
:100080000B0300080B0300080B030008000000002E
:100090000000000000000000000000000B0300084A
:1000A0000B0300080B0300080B0300080B030008F8
:1000B0000B030008AD4000080B0300080B03000809
:1000C0000B0300080B0300080B0300080B030008D8
:1000D0000B0300080B0300080B03000800000000DE
:1000E0000B0300080B0300080B03000800000000CE
:1000F0000000000000000000000000000B030008EA
:10010000000000000B0300080B0300080B030008AD
:1001100000000000000000000000000000000000DF
:100120000B0300080B0300080B0300080B03000877
:100130000B030008000000000000000000000000A9
:100140000000000000000000000000000B03000899
:100150000B0300080B0300080B0300080B03000847
:100160000B0300080B030008000000000000000063
:10017000000000000000000000000000000000007F
:10018000000000000B030008000000000000000059
:100190000B03000800F002F800F09AF80AA090E8BB
:1001A000000C82448344AAF10107DA4501D100F032
:1001B0008FF8AFF2090EBAE80F0013F0010F18BF65
:1001C000FB1A43F0010318477C5100009C510000CA
:1001D000103A24BF78C878C1FAD8520724BF30C873
:1001E00030C144BF04680C60704700000023002445
:1001F00000250026103A28BF78C1FBD8520728BF37
:1002000030C148BF0B6070476E2900F0DD81702956
:1002100000F01383662904F0FC87652904F0F98750
:10022000672904F0F687612904F0F58703681B0A43
:1002300028BF41F08001692900F08A81642900F01B
:100240008781752900F084816F2900F0A1827829C7
:1002500000F0DF82E92900F03B82E42900F03882D7
:10026000F52900F03582EF2900F09E82F82900F090
:10027000DE820368DB0928BF41F08001632900F0BA
:10028000F787732900F0FC87E32901F00780F32941
:1002900001F00C80002070471FB504F0ADFF9DE811
:1002A000030001F0FDFA01F0F7F80400002000213E
:1002B00004F08CFF401C60600020002104F070FFFF
:1002C000E06000F0FBFF1FBD10B501F060F810BD4D
:1002D00001F0B4F81146FFF7DFFF04F02BFB01F04B
:1002E0007BFA03B4FFF7F0FF03BC01F08BFC0000C6
:1002F0000948804709480047FEE7FEE7FEE7FEE7BA
:10030000FEE7FEE7FEE7FEE7FEE7FEE704480549F5
:10031000054A064B70470000994000089501000807
:1003200098020020980800209804002098040020DB
:1003300053EA020C00F069802DE9F04B4FF0000603
:10034000002B1FBFB3FA83F503FA05F424FA05F670
:100350005E4012BF1643B2FA82F502FA05F4C5F107
:1003600020051EBF22FA05FC44EA0C04203556EA9B
:10037000044C4FEA144418BF641C4FF000084FF0BF
:100380000009904271EB030C39D3002919BFB1FA6F
:1003900081F701FA07F6B0FA80F700FA07F6C7F11D
:1003A00020071EBF20FA07FC46EA0C062037B6FBE2
:1003B000F4FCA7EB0507103F07F01F0BCBF120065D
:1003C0002CFA06F60CFA0BFB44BFB3460026202F8E
:1003D000A4BF5E464FF0000B5BEA060C08BF4FF06F
:1003E000010B19EB0B0948EB0608ABFB027C06FB83
:1003F00002CC0BFB03CCC01B71EB0C01C1E70B461D
:10040000024641464846BDE8F08B13B5084318BF85
:100410004FF0FF300146AFF30080BDE81C4070474D
:100420000FB4044910B503AA029800F0E1F810BC1B
:100430005DF814FB6C0000204FF0000200B513467D
:1004400094469646203922BFA0E80C50A0E80C50F4
:10045000B1F12001BFF4F7AF090728BFA0E80C50A5
:1004600048BF0CC05DF804EB890028BF40F8042B9E
:1004700008BF704748BF20F8022B11F0804F18BF0B
:1004800000F8012B704770477047704770B50446FD
:1004900085690068C10601D5302600E02026C00726
:1004A00007D070BDD4E9012130469047206A401C36
:1004B00020626D1EF6D570BD70B504468569007862
:1004C000C00707D170BDD4E9012120209047206AE0
:1004D000401C20626D1EF6D570BD09684A0501D525
:1004E00040B27047C905FCD500B2704709684A059B
:1004F00001D5C0B27047C905FCD580B2704770B550
:100500000C460546012A05D02878800600D5EA6900
:10051000002302E0012305E05B1C934202D2E05C71
:100520000028F9D1A869E618C01AA861286A1844F9
:1005300028622846FFF7AAFF04E0D5E9012114F854
:10054000010B9047B442F8D32846FFF7B5FF70BDC2
:100550002DE9F0410646002410687529314616A59C
:1005600010D0FFF7BAFF002802DA404213A507E0D7
:1005700031688A0701D512A502E0490704D511A503
:10058000012401E0FFF7B2FF00210A2206F124074F
:1005900009E0B0FBF2FCB0FBF2F302FB1C003030D0
:1005A00078541846491C0028F3D123462A46304681
:1005B000BDE8F04100F055BA000000002D00000039
:1005C0002B0000002000000011680268006A53053B
:1005D00001D508700AE0D30501D5088006E01306AE
:1005E00003D5C217C1E9000200E00860012070478E
:1005F000074B70B50D467B4400F01DFE04462846AF
:1006000000F058FE10B14FF0FF3070BD204670BDB5
:10061000174300002DE9FF5F15468A460446DFF8C0
:10062000AC80F8440027D8E900103E46CDE9001020
:1006300010E03AF816106A4602A800F0DBFE411CF2
:1006400007D02178890603D5E269391891420DD87F
:100650000744761C2078800602D5E069B84205DDA3
:10066000AE42E6DB3AF816000028E2D1A069C01BD2
:10067000A0612046FFF70AFFD8E90010CDE900107D
:10068000002017E03AF818106A4602A800F0B2FEFF
:10069000B0F1FF3F81460BD000250DF1080B05E0BE
:1006A000D4E901211BF8050090476D1C4D45F7D397
:1006B00008F10100B0428046E4DB206A3844206241
:1006C0002046FFF7F9FEBDE8FF9F0000F64B000053
:1006D0002DE9F0418046D21D22F007020025D2E923
:1006E0000002F52915A614D0011E72F1000106DAE8
:1006F0000023D0EB030063EB020211A608E0D8F858
:1007000000108B0701D50FA602E0490701D50EA600
:1007100001251146002408F1240704E000F05CF9EB
:1007200030323A55641C50EA0102F7D12B4632466A
:1007300021464046BDE8F04100F093B900000000BA
:100740002D0000002B0000002000000030B400212C
:1007500000F1240408E002F00705D208303542EA2F
:100760004372DB086554491C52EA0305F3D104685F
:10077000002310A2250708D504F020040C4304D060
:10078000C46901230CA2641EC46130BC00F069B9C5
:1007900010B5044621461068FFF7A8FE0246204621
:1007A000BDE810400023D1E7D21D22F00701D1E9B6
:1007B0000023CBE70000000030000000F0B40D463D
:1007C0000188090502D5214C7C4402E01F4C7C4481
:1007D0000E34002100F1240608E002F00F07120990
:1007E000E75D42EA03721B097754491C52EA03078A
:1007F000F3D102780023120704D5702D06D009B179
:10080000022311342246F0BC00F02BB9012310342E
:10081000F8E770B504460D4621461068FFF766FEFE
:10082000024629462046BDE870400023C6E7D21D97
:1008300022F00703D3E90023C0E70368126843F0FE
:10084000200303600823C3610023B7E7584A000070
:100850002DE9F05F894604464FF0000ADFF874B1D5
:10086000FB44C0F820A02046E1688847002874D0E7
:10087000252806D0D4E901219047206A401C206237
:10088000F1E700265F462046E168884720280546B4
:1008900007DB312D05D2781910F8200C08B106437A
:1008A000F1E7B00701D526F00406C4F81CA0002724
:1008B000C4F818A02A2D09D0284604F069FC38B3E2
:1008C00004EB8708303DC8F8185019E059F8041BAC
:1008D000204604EB87029161E1688847012F0546B5
:1008E00018D1E069002820DA26F020061DE0D8F8AB
:1008F000180000EB800005EB40003038C8F8180005
:100900002046E1688847054604F042FC0028EED105
:10091000012F0AD02E2D08D12046E16888477F1C80
:100920000546022F46F02006C4DBA069002803DA42
:10093000404246F00106A061F00701D026F0100603
:100940006C2D0BD0682D09D04C2D39D06A2D35D0A7
:10095000742D35D07A2D33D016E038E0E1682F467B
:1009600020468847B842054609D16C2F26D04FF45F
:100970008060E168064320468847054604E06C2F06
:100980001AD04FF4807006430DB3A5F14100192829
:1009900002D8203546F400664A462946204626609D
:1009A0004E46FFF731FC80B101280BD0F61D26F032
:1009B000070000F1080956E74020E4E78020D8E767
:1009C0000020D6E706F104094DE7284652E7206AE1
:1009D000BDE8F09FE849000030B5B0F10A0271F1BE
:1009E00000034FEA900E4EEA817EB0EB0E0061EB01
:1009F00091014FEA101E4EEA017E10EB0E0041EB12
:100A000011114FEA102E4EEA016E10EB0E0041EB71
:100A100011214FEA104E4EEA014E10EB0E0041EB51
:100A20001141401841F100014FEAD00040EA417005
:100A30004FEAD1014FEA810444EA907410EB80053B
:100A400044EB01046D1944EB0404521BA3414FF025
:100A5000000348BF0A3200D530BD401C41F10001FF
:100A600030BD2DE9F0470D4699469246044600F107
:100A700024080168880604D5E06921F0100121608E
:100A800000E00120A84201DD471B00E00027A1692A
:100A90007A1902EB0900081AA0612078C00602D476
:100AA0002046FFF7F3FC002608E0D4E901211AF8FC
:100AB00006009047206A401C761C20624E45F4DBFD
:100AC0002078C0060AD52046FFF7E0FC06E0D4E90E
:100AD000012130209047206A401C2062381EA7F177
:100AE0000107F4DC07E0D4E9012118F8050090477C
:100AF000206A401C2062281EA5F10105F3DC204677
:100B0000FFF7DAFC2078000602D50220BDE8F08766
:100B10000120FBE72DE9FF4F0C461E464FF0FF3743
:100B20008BB0D2E90001DDF860800A908A46C1F3FB
:100B30000A5505B93D46002108464FF00000BAF1BC
:100B4000000F00F4400005DA00EB80004FF4400194
:100B500001EA50004FEA9059B9F1010F00DDB946A2
:100B60000A9850EA4A000ED044F61050A5F2FF351C
:100B700045432F14B8F1000F1ED07542291E1EDD0B
:100B8000C9F100021CE0B8F1010F4FF0000001D0E4
:100B9000302103E0F24305E02154401CB042FBDB6E
:100BA00030460022002121540B99C1F80880C1E988
:100BB00000200FB0BDE8F08FBD1B6D1CDEE74A467C
:100BC00000DA694206A800F0D3FC06AB93E8070000
:100BD00003AB83E8070050460A9903F0F9FE8DE85D
:100BE0000700A0F500501F3800900398002D0ADD83
:100BF00042F21F014A460844002303A903906846B5
:100C000004F062F909E0A0F500504A461F380023BD
:100C100003A90390684604F06CF98DE8070000040E
:100C2000000C03D04FF0FF30410800E01046B8F14F
:100C3000000F03D00022009215461EE0751E05D459
:100C4000FFF7CAFE303262556D1EF9D5B346012258
:100C5000084302D000227F1C04E02078302801D114
:100C600000227F1E002A099784D01DE0112D07DA8B
:100C7000FFF7B2FE303262556D1C50EA0102F5D129
:100C8000084302D00098C8B10EE00021681E05E0BC
:100C9000235C625C63542254401E491C8142F7DB92
:100CA000AB46A81B401E0990002004F80B000B98CF
:100CB000099AC0F80880C0E9002B7AE711264FF0A6
:100CC000000857E72DE9F04F88460446D21D22F070
:100CD000070191B0D1E90001CDE90A0104F040FA21
:100CE00002460B98C00F01D02D2007E02068810735
:100CF00001D52B2002E0202101EAC000032A09903F
:100D000001D0072A05DB03464146204600F0F0FBF0
:100D10000BE12078800601D5E06900E00620B8F1FB
:100D2000650F814606D0B8F1660F18D0B8F1670F8D
:100D300070D131E00020B9F1110F009001DB1123D7
:100D400001E009F101030AAA01A90CA8FFF7E2FEDC
:100D5000DDE90C70002609F10105834647E001201A
:100D60004B4600904FF000470AAA01A90CA8FFF7D4
:100D7000D1FEDDE90DB00C995D46002610B909F1F0
:100D800001000D18B9EB050003D4C0F1FF3609F1DD
:100D90000105A5EB09002BE0B9F1010F01DA4FF0D5
:100DA00001090020B9F1110F0090484601DD11231F
:100DB00000E003460AAA01A90CA8FFF7ABFEDDE993
:100DC0000C704D4600268346207800070AD4AB45B8
:100DD00000DA5D4601A8012D04DD411911F8011C5E
:100DE000302907D04F4502DA17F1040F04DA012049
:100DF00082460FE06D1EEEE7002F02DCED1B3E4445
:100E000003E0781CA84200DD7D1CB81B00F1010A3C
:100E10004FF000472078000703D4AA4501DB4FF0CC
:100E2000FF3A0021B7F1004F0DF143088DF8431050
:100E300024D002202B23002F01DA7F422D230A2108
:100E4000021EA0F1010000DC5FB197FBF1FC97FBF3
:100E5000F1F201FB1C7C17460CF1300C08F801CDB7
:100E6000EEE7A8F1010003702188090501D54521AD
:100E700000E06521A0F1010800F8011C09980FA904
:100E8000A1EB0807FF1D00B10120411901EBEA7039
:100E9000A1693844081A401EA0612078C00602D417
:100EA0002046FFF7F3FA099828B1D4E901219047C9
:100EB000206A401C20622078C00622D52046FFF719
:100EC000E5FA1EE0002E04DBB34502DD01A8805DDB
:100ED00000E03020D4E901219047206A401C2062C4
:100EE000761CAAF101005FEA000A0AD100F0D4FAE8
:100EF000C0680168405CD4E901219047206A401C29
:100F00002062281EA5F10105DCDC07E0D4E90121FF
:100F100018F8010B9047206A401C2062381EA7F188
:100F20000107F3DC2046FFF7C7FA032011B041E6C2
:100F30002DE9F04F04460D46D21D22F0070089B07E
:100F4000D0E900974846394604F00AF90246F80FFE
:100F500001D02D2307E02068810701D52B2302E073
:100F6000202101EAC0038DF820300BB1012000E000
:100F70000020032A824601D0072A04DB29462046A6
:100F800000F0B6FA3FE12078800601D40D2500E09C
:100F9000E569C7F30A560D2D49DA00214FEA175BC0
:100FA00008464FF00000002F00F4400007DA00EB85
:100FB00080004FF4400100EBD07001EA6000811521
:100FC000012901DD4FF0FF3100224FEA850CBCF111
:100FD000180F06D31346ACF118004FF08052C240F0
:100FE00003E04FF4801323FA0CF30CF10C0CBCF16A
:100FF000200F04D3ACF1200C09FA0CF001E007FA41
:101000000CF000294FF0004801DD18B90FE00ED1B7
:1010100040450CD319EB02095F4121B9404502D18B
:101020009F4329EA0209BBEB175F00D0761C20889A
:10103000000502D57B48784402E07A4878441938A4
:1010400008AA302302F80A30037C0AF10101002EBD
:101050000AF1020A53546A4602DC4FF0300101E003
:101060004FF031014FF001088DF8001002D0A6F2C8
:10107000FF3603E059EA470100D06B4E002D02DC39
:101080002178090704D54FF002082E218DF80110B0
:10109000C44600210BE0C7F303433F01C35C491C76
:1010A0006D1E02F80830052908F1010801DA002D4B
:1010B000F1DC00210CE000EB1973491C1B786D1E5C
:1010C000082902F808304FEA091908F1010801DA85
:1010D000002DF0DC21688B0602D516E0A8F101088E
:1010E000E04505DD02EB080313F8013C302BF5D099
:1010F000B8F1000F09DD02EB080313F8013C2E2BB9
:1011000003D1090701D4A8F10108002D05DD3E2116
:1011100002F808106D1E08F10108407C002E02F84C
:10112000080008F1010804DA2D20764202F80800D0
:1011300002E02B2002F808000A214FF47A70864260
:1011400008F101080BDB96FBF0F3303302F80830AE
:1011500096FBF0F308F1010800FB136601E0642E32
:101160000CDB642096FBF0F3303302F8083096FB7A
:10117000F0F308F1010800FB136601E00A2E06DB1C
:1011800096FBF1F0303002F8080008F1010896FBF8
:10119000F1F001FB1060303002F80800A16908F19D
:1011A000010808EB050202EB0A00081AA06120788A
:1011B000C00602D42046FFF769F9216A08AE01EBA8
:1011C0000A00206204E0D4E9012116F8010B9047DF
:1011D000BAF1010AF7D22078C00602D52046FFF7FF
:1011E00055F96E4609E016F8010B3E280FD0D4E9F8
:1011F00001219047206A401C2062B8F10108F2D218
:101200002046FFF759F909B00320BDE8F08F206AA6
:101210002844206203E0D4E90121302090476D1E6C
:10122000EBD3F8E73642000002FCFFFF01694A1CDD
:1012300002610878704700B58FB0CDE90131002117
:10124000059105497944CDE9031011466846FFF739
:10125000FFFA0FB000BD0000E5FFFFFF10B54369C6
:1012600013B1AFF3008001E0FFF749F9012010BD91
:10127000127800F124010A7000224A700122EDE781
:1012800011684FF0FF32E9E710B5436913B1AFF3CE
:10129000008001E0FFF7BEF9012010BD128800F1C7
:1012A000240182840022C2840122EDE711684FF0FC
:1012B000FF32E9E7007B00F08000704710B542483C
:1012C0005421FFF7B9F841485421FFF7B5F84048D9
:1012D0005421FFF7B1F83F493B483C4A3F4B086077
:1012E0003D490A603A491960531C0365481C106562
:1012F000012008653B48344A39A1784400F0CEF912
:1013000020B9384878440A3800F06FFA37482F4A35
:1013100035A1784400F0C2F920B9344878440A383D
:1013200000F063FA32482A4A2FA1784400F0B6F957
:1013300020B92F4878440A3800F057FA4023224851
:10134000DC000021224600F085F920B125487844D0
:10135000543800F04AFA1D4822464023002100F08C
:1013600079F920B121487844543800F03EFA184801
:1013700022461023002100F06DF9002806D01C48F9
:101380007844BDE81040563800F02FBA10BD104820
:1013900070B5006D20F001040B4800F0F7F90B4820
:1013A00000F0F4F90A4800F0F1F909E0206D20F0AE
:1013B0000105204600F0EAF9204600F071F82C46BD
:1013C000002CF3D170BD0000180000206C0000203C
:1013D000C0000020000000200400002008000020C1
:1013E00072000000853F000077000000713F0000A0
:1013F0005D3F00002DE9F04116460C46054600F021
:1014000043F8036893F80101012807D0FF2C12D894
:10141000185D80B101202C70BDE8F081D3F8070180
:101420003246214603F20713C7182846BC46BDE8DA
:10143000F041002360474FF0FF30EDE7754600F0C4
:101440000FFAAE4605006946534620F00700854670
:1014500018B020B5FEF75AFFBDE820404FF0000657
:101460004FF000074FF000084FF0000BAC46ACE81F
:10147000C009ACE8C009ACE8C009ACE8C00921F07B
:1014800007018D467047000010B500F005F8001DFB
:1014900010BD00BF393D00000048704734010020F6
:1014A00070B50446051F00F0DFF90068002C14BF7A
:1014B000446870BD002C18BFAC423CBF2046646835
:1014C000F8D301680A18AA4218BF456003D12A68F8
:1014D00005461144016028684119A1421CBF6C6097
:1014E00070BD6168696021680844286070BD0000B3
:1014F0002DE9F0411F46044603260168072A01F43E
:10150000006004DB08B116A505E016A503E008B1EC
:1015100015A500E015A521F010002060A069C01EEF
:10152000A0610FB1401EA0612046FEF7AFFF4FB192
:10153000D4E9012138469047206A401C2062C01C33
:10154000206206E0206AFAE7D4E9012115F8010BD0
:101550009047761EF8D22046FEF7AEFFBDE8F08138
:101560004E414E006E616E00494E4600696E660047
:101570002DE9F047814616468AB0354878440DC8B3
:101580008DE80D0032487844801C03AC0DC884E817
:101590000D0041F69B300844372190FBF1F290FB9F
:1015A000F1F5A5F1800501FB12041B3C02D5644254
:1015B000012000E00020DFF898A080460027FA44D0
:1015C000AAF1BE0A0EE0E0070AD03246684607EBF1
:1015D000470101230AEB810103F08BFC8DE8070032
:1015E00064107F1C002CEED1194F7F44AE3F19E0F0
:1015F000E80715D007EB04100DF1180A90E80E006B
:101600008AE80E00C068F04201D19819089032466D
:10161000012306A903A803F06CFC03AB83E80700D1
:101620006D10641C002DE3D14FF001033246694672
:10163000B8F1000F03A802D003F046FC01E003F06C
:1016400058FCC9E90001C9F808200AB0BDE8F087D4
:101650008C3D000070B5C468A50713D0650211D495
:10166000B2F5807F09D0B2F5007F06D0B2F5806F69
:1016700008D1012300F1240106E05D1E6FF07F46D2
:10168000B54201D3012070BD0161C361416024F402
:1016900070611143C160002070BD00002DE9F04170
:1016A0000C461646070047D0104600F06FF8207829
:1016B000611C61280AD0722802D077283CD102E050
:1016C0000125002405E00225042402E0082448F254
:1016D000020511F8010B2B2806D0622809D011F859
:1016E000010C74280AD00BE045F0030544F0020415
:1016F000EFE745F0040544F00104EAE744F0100484
:101700003846214600F078F8411C15D0002131619F
:1017100071604FF40071F560F1617061200704D5CC
:1017200030460222002100F019F9306D40F001002E
:1017300030653046BDE8F0810020FBE72DE9F0413F
:101740000D460646104C206DC10704D0410804D058
:1017500020F00104F7E722460EE0542000F0CFF815
:1017600007000ED0206D47F0010108435421206589
:101770003846FEF761FE3A4629463046BDE8F0415C
:101780008CE70020D6E70000180000202DE9F04784
:1017900004464FF000094FF0FF37C568D4E90486CE
:1017A000A80707D0204600F089F9304600F02EF84F
:1017B000002802DA3846BDE8F087280502D5404601
:1017C000FFF76EFE4C212046FEF736FE206D20F01E
:1017D000010020654846EEE710B50446AFF30080EF
:1017E0002046BDE81040FEF77CBD10B500F0B0F912
:1017F000BDE8104000F0A6B90EB5CDE9000100F03B
:101800006AFA029069460120ABBE0EBD08B5694672
:1018100000900220ABBE08BD1FB58DE807006946E9
:101820000520ABBE04B010BD1FB58DE80F006946A2
:101830000620ABBEF6E708B5694600900920ABBEAE
:1018400008BD1CB5CDE9000169460A20ABBE1CBD30
:10185000704708B5694600900C20ABBE08BD00007B
:101860000048704714010020004870471C01002008
:10187000704770477047704738B504460A460020E5
:101880006946AFF30080002808BF38BD02460099C2
:10189000204600F0C5F9012038BD012000F014BA3F
:1018A000F8B5AFF30080054600200C46102000BFBD
:1018B0000646A819A0420DD9324669460020AFF36A
:1018C0000080070008BF00F0FFF90098A04218BF91
:1018D0000546C419FFF7C8FF05600746F01D20F054
:1018E00007004619284600F094F9B44208BFF8BD35
:1018F000A21B31463868BDE8F84000F091B970B5D8
:101900000646FFF7B1FF056806F10B0020F007045B
:10191000B4429CBF002070BD2B466A68BAB1106803
:10192000A04210D304F1080188423CBF50685860BF
:1019300007D35168101941601168091B0160586094
:101940001460101D70BD13465268002AE7D121466D
:101950002846FFF791FF0028DED170BD2DE9F04148
:10196000044616460D464769007B80072ED0384650
:10197000FFF761FF50BB3EB3012E02D0022E25D1EE
:1019800004E0204600F066F905441DE03846FFF704
:1019900060FFE168002841F01001E16005DA2046AF
:1019A00000F058F80120BDE8F081C9030BD562684A
:1019B000E16A914200D81146A26911442269891A4C
:1019C000814200DD08460544002D01DA0220EAE7E5
:1019D000E16A6068E268814206D29103E06203D561
:1019E00022F4003141F01002A6690027AE4213DC58
:1019F000E16A814201D90B4600E0034603EB060C85
:101A00002369ACEB030CAC4506DD814201D98C4661
:101A100000E084469C4505D1A760276042F0200085
:101A2000A5620DE0AD1BE669AE1B8142A66000D940
:101A30000846C01A281A20605819606022F0200059
:101A400003490840E060002084F84870ABE70000DC
:101A5000BFCFD7FFC16821F4001141F08001C16000
:101A600000218160016070472DE9F04781461446EE
:101A70000E464FF0FF383248D5685769054209D005
:101A80003846A169FFF7DDFE002811DB2C48C04372
:101A90000540E5602B46324649463846FFF7BCFE16
:101AA000A16920F00042B21A11440028A16103D0BC
:101AB0002046FFF7CFFF4046BDE8F08770B50446EB
:101AC0000569C06A6168884200D80846E16821F467
:101AD0002011E160C90312D5A84208D02246411B5B
:101AE0002846FFF7C1FF10B14FF0FF3070BD002056
:101AF000E562C4E90150E06820F48030E060002035
:101B000070BD10B50446C06820F02000E060A16AF6
:101B1000A06988420DD02046FFF7D0FFE06820F48E
:101B2000405040F01000E060A06AA0612069E062CF
:101B3000606044F24001E0688843E06010BD00004E
:101B400010000200002801D000F05CB870470000CF
:101B500010B5014602A000F09EF8012010BD000063
:101B600053494752545245443A205265646972655C
:101B700063743A2063616E2774206F70656E3A203B
:101B8000000000000000000030B44FF0013C50F8AD
:101B9000042B51F8043BCCFA52F4D51A20D1FCB9ED
:101BA00050F8042B51F8043BCCFA52F4D51A17D153
:101BB000B4B950F8042B51F8043BCCFA52F4D51ABE
:101BC0000ED16CB950F8042B51F8043BCCFA52F406
:101BD000D51A05D1002CDAD030BC4FF00000704788
:101BE00029BAB1FA81F111F01801D1F12000844035
:101BF000F2D1CA40CB4012F0FF0213F0FF0330BC19
:101C0000D01A704701491820ABBEFEE7260002003B
:101C1000704700210160C0E9011070471020704733
:101C2000034640688C46002818BF88423CBF0346E4
:101C30004068F8D318681844884207D00CF10300B4
:101C400020F00700001D411A521A0146081D0A60C3
:101C5000FFF726BC10B50146C268900703D0900676
:101C600007D5886A0AE000F05DF801210160881E4E
:101C700010BD8B69486818440B69C01A91F8483048
:101C80001BB191F84910401A10BD1103FCD5002872
:101C9000FADD401E10BD70B505460C460A2000E076
:101CA0006D1C00F037F835B128780028F8D102E033
:101CB000641C00F02FF814B120780028F8D1BDE89A
:101CC00070400A2000F026B810B500F02FF8BDE8EB
:101CD0001040FFF737BF10B5431C02E010F8011B9E
:101CE00071B18107FAD14FF0013202C88C1A8C43CE
:101CF00014EAC211F9D0C01A0A0603D0C01E10BDE2
:101D0000C01A10BD0A0401D0801E10BD0902FCD00B
:101D1000401E10BD08B569468DF800000320ABBE1B
:101D200008BD0000004870471401002010B50128CC
:101D300005D0002103A0FFF7AEFF012010BD09A1CF
:101D4000F8E7000053494752544D454D3A204F752E
:101D500074206F662068656170206D656D6F7279A3
:101D6000000000003A2048656170206D656D6F725B
:101D70007920636F7272757074656400FFE7FEE727
:101D80007047000081B0EFF3108072B60090FFE75B
:101D9000FEE7000080B584B0039000F0E7F9029000
:101DA000039801900198013048B1FFE740F210001C
:101DB000C2F200000178019808440190FFE7FFE7B4
:101DC00000F0D4F90299401A0199884201D2FFE744
:101DD000F6E704B080BD00008BB00A9009910020A6
:101DE0000790069005900890FFE708980F2800F2EA
:101DF000A281FFE7089901208840079009980068B0
:101E000007990840069006980799884240F08E810D
:101E1000FFE70998406800F00300012807D0FFE7BA
:101E20000998406800F0030002282FD1FFE70A98C4
:101E30008068059008984100032000FA01F1059898
:101E4000884305900998C0680899490000FA01F193
:101E500005980843059005980A9988600A98406893
:101E600005900899012000FA01F105988843059032
:101E700009984068C0F30010089900FA01F105982C
:101E80000843059005980A994860FFE7099840685B
:101E900000F00300032818D0FFE70A98C0680590F7
:101EA00008984100032000FA01F105988843059045
:101EB000099880680899490000FA01F105980843DB
:101EC000059005980A99C860FFE70998406800F0F6
:101ED0000300022826D1FFE70A9808996FF0030251
:101EE00002EA51010844006A0590089800F00700D2
:101EF00081000F2000FA01F10598884305900998A8
:101F00000069089901F00701890000FA01F10598BC
:101F10000843059005980A99089B02EA5302114468
:101F20000862FFE70A9800680590089841000320BE
:101F300000FA01F10598884305900998406800F07F
:101F400003000899490000FA01F10598084305903B
:101F500005980A990860099880798007002800F0A0
:101F6000E480FFE7FFE70020049043F64400C4F25A
:101F70000200016841F480410160006800F4804083
:101F800004900498FFE7089820F0030043F6080146
:101F9000C4F2010140580590089800F00300810048
:101FA0000F2000FA01F10598884305900A98002156
:101FB000C4F20201884203D1FFE70020039034E01D
:101FC0000A9840F20041C4F20201884203D1FFE7BF
:101FD0000120029026E00A9840F60001C4F20201B6
:101FE000884203D1FFE70220019018E00A9840F6EA
:101FF0000041C4F20201884203D1FFE703200090B0
:102000000AE00A9941F20002C4F20202072091425A
:1020100008BF04200090FFE700980190FFE70198B7
:102020000290FFE702980390FFE70398C0B2089977
:1020300001F00301890000FA01F1059808430590B9
:102040000598089921F0030143F60802C4F2010241
:10205000885043F60840C4F20100006805900699D4
:1020600005988843059009988079C006002805D511
:10207000FFE70699059808430590FFE7059843F6A2
:102080000841C4F20101086043F60C40C4F20100AB
:10209000006805900699059888430590099880790D
:1020A0008006002805D5FFE70699059808430590A6
:1020B000FFE7059843F60C41C4F20101086043F6BE
:1020C0000440C4F201000068059006990598884311
:1020D0000590099880798007002805D5FFE70699C3
:1020E000059808430590FFE7059843F60441C4F2BC
:1020F0000101086043F60040C4F201000068059049
:10210000069905988843059009988079C00728B1F9
:10211000FFE70699059808430590FFE7059843F601
:102120000041C4F201010860FFE7FFE7FFE70898FC
:102130000130089059E60BB07047000082B0019062
:10214000ADF802108DF801209DF8010028B1FFE7DD
:10215000BDF802000199886105E0BDF802000004A5
:1021600001998861FFE702B07047000040F29020BB
:10217000C2F200000068704740F21000C2F2000096
:10218000027840F29021C2F2000108681044086011
:102190007047000080B582B043F60041C4F20201EE
:1021A000086840F400700860086840F480600860C7
:1021B000086840F480700860032000F08FF8002069
:1021C000019000F005F800F03BF8019802B080BDE6
:1021D00080B582B0009040F20C00C2F200000068AE
:1021E00040F21001C2F200010A784FF47A71B1FB9B
:1021F000F2F1B0FBF1F000F0A9FD20B1FFE7012002
:102200008DF8070018E000980F280DD8FFE7009917
:102210004FF0FF30002200F047F8009840F2140120
:10222000C2F20001086003E001208DF8070003E01E
:1022300000208DF80700FFE79DF8070002B080BD81
:1022400080B582B0FFE70020019043F64400C4F25D
:102250000200016841F480410160006800F48040A0
:1022600001900198FFE7FFE70020009043F640004F
:10227000C4F20200016841F080510160006800F082
:10228000805000900098FFE7072000F027F802B088
:1022900080BD000080B582B08DF807009DF9070071
:1022A00002F0D6FA02B080BD80B586B08DF8170076
:1022B000049103920020029002F0E2FA02909DF94C
:1022C0001700019002980499039A01F021FE01463B
:1022D000019802F0DDFA06B080BD000080B582B042
:1022E0000190019802F0F6FA02B080BD80B584B08A
:1022F00002900191029820B9FFE701208DF80F00AC
:1023000021E1019843F60041C4F20201096801F09D
:102310000701884212D9FFE7019943F60040C4F251
:1023200002000170006800F007000199884204D0A3
:10233000FFE701208DF80F0005E1FFE70298007824
:10234000800700282AD5FFE7029800784007002878
:1023500009D5FFE743F60801C4F20201086840F41A
:10236000E0500860FFE7029800780007002809D5D0
:10237000FFE743F60801C4F20201086840F4604038
:102380000860FFE743F60801C4F20201086820F084
:10239000F000029A926810430860FFE70298007804
:1023A000C00700286ED0FFE702984068012811D1CD
:1023B000FFE743F60000C4F20200006800F40031B9
:1023C0000020B0EB514F04D1FFE701208DF80F0042
:1023D000B9E02CE002984068022805D0FFE7029897
:1023E0004068032811D1FFE743F60000C4F2020061
:1023F000006800F000710020B0EB516F04D1FFE7DE
:1024000001208DF80F009EE010E043F60000C4F2BA
:102410000200006800F002010020B0EB510F04D16F
:10242000FFE701208DF80F008DE0FFE7FFE743F69F
:102430000801C4F20201086820F00300029A526801
:1024400010430860FFF792FE0090FFE743F6080094
:10245000C4F20200006800F00C0002994968B0EB79
:10246000810F0ED0FFE7FFF781FE0099401A41F27D
:102470008931884204D3FFE703208DF80F0062E022
:10248000E4E7FFE7019843F60041C4F2020109685E
:1024900001F00701884212D2FFE7019943F600409C
:1024A000C4F202000170006800F007000199884240
:1024B00004D0FFE701208DF80F0044E0FFE7029809
:1024C0000078400700280CD5FFE743F60801C4F266
:1024D0000201086820F4E050029AD26810430860B4
:1024E000FFE702980078000700280DD5FFE743F6C4
:1024F0000801C4F20201086820F46040029A1269DF
:1025000040EAC2000860FFE700F04CF843F608011B
:10251000C4F202010968C9B20A0945F22431C0F6C1
:102520000001895CC84040F20C01C2F20001086061
:1025300040F21400C2F200000068FFF749FE0020DC
:102540008DF80F00FFE79DF80F0004B080BD00007C
:1025500040F20C00C2F200000068704780B5FFF73F
:10256000F7FF43F60801C4F202010968C1F38222B1
:1025700045F23431C0F60001895CC84080BD0000DE
:1025800080B5FFF7E5FF43F60801C4F202010968D0
:1025900089B24A0B45F23431C0F60001895CC8406B
:1025A00080BD000080B586B00020059004900390A7
:1025B000029043F60800C4F20200006800F00C002C
:1025C0000146019140B1FFE7019804280AD0FFE7D6
:1025D000019808280CD04FE042F20040C0F2F4000D
:1025E00002904FE041F20020C0F27A00029049E0F0
:1025F00043F60400C4F20200016801F03F010591B6
:1026000000684002002813D5FFE743F60400C4F237
:1026100002000068C0F3881041F20021C0F27A0184
:10262000A0FB0101059A0023FDF782FE049012E051
:1026300043F60400C4F202000068C0F3881042F2BE
:102640000041C0F2F401A0FB0101059A0023FDF74F
:102650006FFE0490FFE743F60400C4F20200006836
:1026600000F44031022000EBD1300390049803992C
:10267000B0FBF1F0029005E042F20040C0F2F4003D
:102680000290FFE7029806B080BD000080B586B0DA
:102690000490049820B9FFE701208DF8170050E35B
:1026A00004980078C007002800F0A580FFE743F6F3
:1026B0000800C4F20200006800F00C00042813D0E7
:1026C000FFE743F60800C4F20200006800F00C00C7
:1026D00008281ED1FFE743F60400C4F20200006898
:1026E0004002002815D5FFE743F60000C4F20200BF
:1026F000006800F400310020B0EB514F08D0FFE734
:102700000498406820B9FFE701208DF8170018E30E
:1027100070E0FFE704984068B0F5803F09D1FFE71B
:1027200043F60001C4F20201086840F480300860FA
:1027300020E004984068B0F5A02F0DD1FFE743F6E4
:102740000001C4F20201086840F4802008600868B3
:1027500040F4803008600CE043F60001C4F202014E
:10276000086820F480300860086820F48020086041
:10277000FFE7FFE7FFE704984068E8B1FFE7FFF7EE
:10278000F5FC0390FFE743F60000C4F20200006886
:1027900000F400310020B0EB514F0CD1FFE7FFF700
:1027A000E5FC0399401A652804D3FFE703208DF860
:1027B0001700C6E2E7E71CE0FFF7D8FC0390FFE74D
:1027C00043F60000C4F20200006800F4003100206B
:1027D000B0EB514F0CD0FFE7FFF7C8FC0399401A4C
:1027E000652804D3FFE703208DF81700A9E2E7E787
:1027F000FFE7FFE7FFE7049800788007002840F133
:102800009680FFE743F60800C4F20200006810F06B
:102810000C0F13D0FFE743F60800C4F20200006873
:1028200000F00C0008282CD1FFE743F60400C4F2A6
:10283000020000684002002823D4FFE743F60000AE
:10284000C4F20200006800F002010020B0EB510F5A
:1028500009D0FFE70498C068012804D0FFE70120F1
:102860008DF817006DE243F60001C4F2020108681A
:1028700020F0F800049A126940EAC2000860FFE7FD
:1028800054E00498C06870B3FFE70021C4F2472108
:1028900001200860FFF76AFC0390FFE743F60000A1
:1028A000C4F20200006800F002010020B0EB510FFA
:1028B0000CD1FFE7FFF75AFC0399401A032804D311
:1028C000FFE703208DF817003BE2E7E743F600013E
:1028D000C4F20201086820F0F800049A126940EA84
:1028E000C200086021E00021C4F2472100200860F6
:1028F000FFF73CFC0390FFE743F60000C4F2020040
:10290000006800F002010020B0EB510F0CD0FFE78F
:10291000FFF72CFC0399401A032804D3FFE7032098
:102920008DF817000DE2E7E7FFE7FFE7FFE7049800
:102930000078000700284BD5FFE70498406918B3DA
:10294000FFE740F68061C4F2472101200860FFF7ED
:102950000DFC0390FFE743F67400C4F20200006828
:1029600000F002010020B0EB510F0CD1FFE7FFF7A0
:10297000FDFB0399401A032804D3FFE703208DF8D9
:102980001700DEE1E7E722E040F68061C4F247216C
:1029900000200860FFF7EAFB0390FFE743F67400AE
:1029A000C4F20200006800F002010020B0EB510FF9
:1029B0000CD0FFE7FFF7DAFB0399401A032804D392
:1029C000FFE703208DF81700BBE1E7E7FFE7FFE72C
:1029D000049800784007002840F1CE80FFE70020EF
:1029E0008DF8070043F64000C4F202000068C00002
:1029F000002815D4FFE7FFE70020009043F64000D1
:102A0000C4F20200016841F080510160006800F0EA
:102A1000805000900098FFE701208DF80700FFE745
:102A200047F20000C4F200000068C005002822D46C
:102A3000FFE747F20001C4F20001086840F480702B
:102A40000860FFF793FB0390FFE747F20000C4F232
:102A500000000068C00500280CD4FFE7FFF786FBE4
:102A60000399401A032804D3FFE703208DF81700C9
:102A700067E1EAE7FFE7FFE704988068012809D1EA
:102A8000FFE743F67001C4F20201086840F001005C
:102A900008601FE00498806805280DD1FFE743F621
:102AA0007001C4F20201086840F004000860086880
:102AB00040F0010008600CE043F67001C4F202012E
:102AC000086820F001000860086820F00400086031
:102AD000FFE7FFE7FFE704988068F8B1FFE7FFF73B
:102AE00045FB0390FFE743F67000C4F20200006864
:102AF00000F002010020B0EB510F0ED1FFE7FFF70D
:102B000035FB0399401A41F28931884204D3FFE72B
:102B100003208DF8170014E1E5E71EE0FFF726FB20
:102B20000390FFE743F67000C4F20200006800F073
:102B300002010020B0EB510F0ED0FFE7FFF716FBAC
:102B40000399401A41F28931884204D3FFE70320F8
:102B50008DF81700F5E0E5E7FFE79DF8070001288D
:102B600009D1FFE743F64001C4F20201086820F0F2
:102B700080500860FFE7FFE704988069002800F0B4
:102B8000DC80FFE743F60800C4F20200006800F0B2
:102B90000C00082800F08580FFE70498806902286F
:102BA0005CD1FFE76021C4F2472100200860FFF7F5
:102BB000DDFA0390FFE743F60000C4F2020000686C
:102BC00000F000710020B0EB516F0CD0FFE7FFF771
:102BD000CDFA0399401A032804D3FFE703208DF8A8
:102BE0001700AEE0E7E70499C869D1F820C04B6A46
:102BF0008A6A40EA0C0040EA8310D2034FF6FF7362
:102C00009A43A2F580321043C96A40EA016043F654
:102C10000401C4F2020108606021C4F247210120CE
:102C20000860FFF7A3FA0390FFE743F60000C4F241
:102C30000200006800F000710020B0EB516F0CD171
:102C4000FFE7FFF793FA0399401A032804D3FFE73D
:102C500003208DF8170074E0E7E721E06021C4F25B
:102C6000472100200860FFF781FA0390FFE743F651
:102C70000000C4F20200006800F000710020B0EB18
:102C8000516F0CD0FFE7FFF771FA0399401A032840
:102C900004D3FFE703208DF8170052E0E7E7FFE7D2
:102CA0004AE004988069012804D1FFE701208DF8EB
:102CB000170046E043F60400C4F2020000680290E8
:102CC00004988069012831D0FFE7029800F4800061
:102CD0000499C969884229D1FFE7029800F03F00B2
:102CE0000499096A884221D1FFE7029847F6C0712A
:102CF00008400499496AB0EB811F17D1FFE7029899
:102D000000F440300499896AC9034FF6FF72914379
:102D1000A1F58031884209D1FFE7029800F0706088
:102D20000499C96AB0EB016F04D0FFE701208DF868
:102D3000170006E0FFE7FFE7FFE700208DF8170028
:102D4000FFE79DF8170006B080BD000080B582B097
:102D50000190019801F016F902B080BD81B0009099
:102D600001B0704781B0009001B0704785B003900A
:102D70000291FFE7039890F83C00012804D1FFE797
:102D800002208DF813006CE00399012081F83C00CB
:102D9000FFE7FFE70399022081F83D0003980068F0
:102DA000406801900398006880680090019820F0C6
:102DB0007000019002980168019808430190019801
:102DC000039909684860039800680021C4F2010172
:102DD00088422AD0FFE703980068B0F1804F24D0E2
:102DE000FFE70398006840F20041C4F20001884206
:102DF0001BD0FFE70398006840F60001C4F2000111
:102E0000884212D0FFE70398006840F60041C4F200
:102E10000001884209D0FFE70398006844F20001EE
:102E2000C4F2010188420ED1FFE7009820F0800033
:102E30000090029841680098084300900098039918
:102E400009688860FFE70399012081F83D00FFE7EA
:102E50000399002081F83C00FFE700208DF8130063
:102E6000FFE79DF8130005B07047000080B582B001
:102E70000090009820B9FFE701208DF807003FE09F
:102E8000009890F83D0040B9FFE70099002081F8D4
:102E90003C00009800F038F8FFE70099022081F824
:102EA0003D00009951F8040B01F008F90099012048
:102EB00081F84600FFE70099012081F83E00009963
:102EC00081F83F00009981F84000009981F84100A5
:102ED000FFE7FFE70099012081F84200009981F89F
:102EE0004300009981F84400009981F84500FFE70C
:102EF0000099012081F83D0000208DF80700FFE7D0
:102F00009DF8070002B080BD80B586B00590059899
:102F10000068B0F1804F12D1FFE7FFE70020049076
:102F200043F64000C4F20200016841F00101016073
:102F3000006800F0010004900498FFE740E0059865
:102F4000006840F20041C4F2000188421BD1FFE753
:102F5000FFE70020039043F64000C4F2020001683E
:102F600041F002010160006800F002000390039844
:102F7000FFE71D20019000221146FFF795F9019807
:102F8000FFF788F91BE00598006840F60001C4F2DD
:102F90000001884212D1FFE7FFE70020029043F6CC
:102FA0004000C4F20200016841F0040101600068C1
:102FB00000F0040002900298FFE7FFE7FFE7FFE759
:102FC00006B080BD80B586B00490039100208DF8D6
:102FD0000B00FFE7049890F83C00012804D1FFE7BC
:102FE00002208DF81700ABE00499012081F83C0025
:102FF000FFE7FFE70499022081F83D00049800688C
:1030000080680190019820F077000190019820F4E9
:103010007F400190019804990968886003980068CE
:103020000090002872D0FFE7009810286ED0FFE7CC
:10303000009820286AD0FFE70098302866D0FFE784
:103040000098402855D0FFE70098502837D0FFE778
:103050000098602840D0FFE7009870280BD0FFE769
:103060000098B0F5805F05D0FFE70098B0F5005FED
:1030700016D052E055E004980068039B5A6899689E
:10308000DB6801F0D5F80498006880680190019829
:1030900040F077000190019804990968886040E049
:1030A00004980068039B5A689968DB6801F0C0F8CF
:1030B00004980168886840F48040886031E0049892
:1030C0000068039A5168D26801F066FA04980068B3
:1030D000502101F0C7F824E004980068039A516871
:1030E000D26801F081FA04980068602101F0BAF812
:1030F00017E004980068039A5168D26801F04CFA0E
:1031000004980068402101F0ADF80AE004980068D6
:103110000399096801F0A6F803E001208DF80B007F
:10312000FFE70499012081F83D00FFE704990020A2
:1031300081F83C00FFE79DF80B008DF81700FFE7D2
:103140009DF8170006B080BD81B0009001B07047B7
:1031500080B582B0019001980068006900F002011A
:103160000020B0EB510F28D0FFE701980068C0683D
:1031700000F002010020B0EB510F1DD0FFE70198D5
:1031800001686FF002000861019901200877019839
:1031900000688069800720B1FFE70198FFF7D4FF3E
:1031A00006E0019800F09AF9019800F08FFAFFE725
:1031B000019900200877FFE7FFE7019800680069A0
:1031C00000F004010020B0EB910F29D0FFE7019837
:1031D0000068C06800F004010020B0EB910F1ED021
:1031E000FFE7019801686FF004000861019902206F
:1031F000087701980068806910F4407F04D0FFE7E9
:103200000198FFF7A1FF06E0019800F067F9019827
:1032100000F05CFAFFE7019900200877FFE7FFE77D
:1032200001980068006900F008010020B0EBD10FA0
:1032300028D0FFE701980068C06800F0080100206E
:10324000B0EBD10F1DD0FFE7019801686FF00800C7
:10325000086101990420087701980068C069800717
:1032600020B1FFE70198FFF76FFF06E0019800F03B
:1032700035F9019800F02AFAFFE701990020087754
:10328000FFE7FFE701980068006900F010010020E7
:10329000B0EB111F29D0FFE701980068C06800F06B
:1032A00010010020B0EB111F1ED0FFE7019801684C
:1032B0006FF01000086101990820087701980068F4
:1032C000C06910F4407F04D0FFE70198FFF73CFF8E
:1032D00006E0019800F002F9019800F0F7F9FFE725
:1032E000019900200877FFE7FFE70198006800696F
:1032F000C00780B1FFE701980068C068C00748B107
:10330000FFE7019801686FF001000861019800F083
:10331000A1FAFFE7FFE7019800680069C1B2002049
:10332000B0EBD11F13D0FFE701980068C068C1B2AD
:103330000020B0EBD11F09D0FFE7019801686FF0C2
:10334000800008610198FFF709FDFFE7FFE701989A
:103350000068006900F040010020B0EB911F14D01C
:10336000FFE701980068C06800F040010020B0EB62
:10337000911F09D0FFE7019801686FF040000861D4
:10338000019800F06BFAFFE7FFE701980068006919
:1033900000F020010020B0EB511F14D0FFE701988E
:1033A0000068C06800F020010020B0EB511F09D078
:1033B000FFE7019801686FF0200008610198FFF7AE
:1033C000D1FCFFE7FFE702B080BD000080B58AB006
:1033D00009900020089007900690059004900998A5
:1033E0000068B0F1804F20D1FFE7FFE70020039095
:1033F00043F63000C4F20200016841F001010160AF
:10340000006800F0010003900398FFE7012004909A
:103410000221059100210691079108900020C4F235
:10342000020004A9FEF7D8FC55E00998006840F2B4
:103430000041C4F20001884221D1FFE7FFE70020EC
:10344000029043F63000C4F20200016841F002012C
:103450000160006800F0020002900298FFE710206F
:10346000049002200590002106910791089040F2F7
:103470000040C4F2020004A9FEF7AEFC2AE009985D
:10348000006840F60001C4F20001884221D1FFE744
:10349000FFE70020019043F63000C4F2020001680B
:1034A00041F002010160006800F002000190019803
:1034B000FFE740200490022005900021069107912B
:1034C000089040F20040C4F2020004A9FEF784FC18
:1034D000FFE7FFE7FFE70AB080BD000081B0009082
:1034E00001B0704780B586B004900391029200202D
:1034F0008DF80700FFE7049890F83C00012804D1FC
:10350000FFE702208DF8170089E00499012081F877
:103510003C00FFE7FFE7029800900C2800F2708063
:103520000099DFE801F0076D6D6D206D6D6D3A6DEE
:103530006D6D530004980068039900F0A9FE04988B
:103540000168886940F0080088610498016888690A
:1035500020F0040088610398026904980168886972
:103560001043886150E004980068039900F0F6FE6B
:1035700004980168886940F40060886104980168D3
:10358000886920F480608861039802690498016862
:10359000886940EA0220886136E00498006803994F
:1035A00000F046FF04980168C86940F00800C8614F
:1035B00004980168C86920F00400C8610398026992
:1035C00004980168C8691043C8611DE00498006848
:1035D000039900F097FF04980168C86940F40060FF
:1035E000C86104980168C86920F48060C8610398C4
:1035F000026904980168C86940EA0220C86103E0D2
:1036000001208DF80700FFE7FFE70499002081F80B
:103610003C00FFE79DF807008DF81700FFE79DF8D5
:10362000170006B080BD000080B582B00090009801
:1036300020B9FFE701208DF807003FE0009890F8DF
:103640003D0040B9FFE70099002081F83C00009858
:1036500000F038F8FFE70099022081F83D0000995A
:1036600051F8040B00F02AFD0099012081F8460072
:10367000FFE70099012081F83E00009981F83F00A2
:10368000009981F84000009981F84100FFE7FFE7C9
:103690000099012081F84200009981F843000099C7
:1036A00081F84400009981F84500FFE70099012066
:1036B00081F83D0000208DF80700FFE79DF8070026
:1036C00002B080BD81B0009001B0704781B0009021
:1036D00001B0704780B58AB008900791079828B963
:1036E000FFE7089890F83E0005901CE00798042832
:1036F00005D1FFE7089890F83F00049010E0079884
:10370000082805D1FFE7089890F84000039004E0EE
:10371000089890F841000390FFE703980490FFE7B2
:1037200004980590FFE70598012804D0FFE70120E1
:103730008DF827008AE0079828B9FFE7089902204A
:1037400081F83E001EE00798042806D1FFE708999B
:10375000022081F83F00029012E00798082806D165
:10376000FFE70899022081F84000019005E00899E0
:10377000022081F841000190FFE701980290FFE7E5
:103780000298FFE7089800680799012200F034FDCD
:10379000089800680021C4F20101884207D1FFE7C0
:1037A00008980168486C40F400404864FFE70898B6
:1037B00000680021C4F2010188422AD0FFE708987E
:1037C0000068B0F1804F24D0FFE70898006840F20D
:1037D0000041C4F2000188421BD0FFE7089800684E
:1037E00040F60001C4F20001884212D0FFE70898B9
:1037F000006840F60041C4F20001884209D0FFE7AA
:103800000898006844F20001C4F20101884212D114
:10381000FFE708980068806800F0070006900698A7
:10382000062807D0FFE708980168086840F0010003
:103830000860FFE706E008980168086840F00100AA
:103840000860FFE700208DF82700FFE79DF82700BC
:103850000AB080BD81B0009001B0704781B0009087
:1038600001B0704780B582B00090009820B9FFE7A2
:1038700001208DF807003EE00098806908B1FFE75D
:1038800000E0FFE7009890F83D0040B9FFE700999D
:10389000002081F83C00009800F032F8FFE7009922
:1038A000242081F83D0000980168C86820F4005089
:1038B000C860009800F0C2FE00980168086920F412
:1038C0009040086100980168486920F02A0048612A
:1038D00000980168C86840F40050C8600099002052
:1038E0000864009A202182F83D10009A82F83E1068
:1038F0008DF80700FFE79DF8070002B080BD0000CB
:1039000080B588B007900020069005900490039041
:1039100002900798006844F20041C4F20001884216
:1039200033D1FFE7FFE70020019043F64000C4F2E7
:103930000200016841F400310160006800F40030C9
:1039400001900198FFE7FFE70020009043F6300068
:10395000C4F20200016841F001010160006800F05A
:10396000010000900098FFE70C20029002200390D5
:103970000020049003200590072006900020C4F248
:10398000020002A9FEF728FAFFE708B080BD000098
:1039900080B58AB008900791ADF81A2005930020F1
:1039A0000290089890F83D00202840F09080FFE7B2
:1039B000079820B1FFE7BDF81A0020B9FFE7012002
:1039C0008DF8270087E0FFE7089890F83C00012871
:1039D00004D1FFE702208DF827007CE00899012040
:1039E00081F83C00FFE7FFE7089900200864089988
:1039F000212081F83D00FEF7B9FB0290BDF81A00C6
:103A000008998884BDF81A000899C88408988068C5
:103A1000B0F5805F09D1FFE70898006928B9FFE792
:103A2000002004900798039004E007980490002079
:103A30000390FFE7FFE70899002081F83C00FFE7CB
:103A4000FFE70898C08C58B3FFE70898029B0599D8
:103A50006A4611608021002200F08EFE20B1FFE74F
:103A600003208DF8270036E0049858B9FFE7039843
:103A700000886FF35F200899096848600398023056
:103A8000039008E004980078089909684860049851
:103A900001300490FFE70899C88C0138C884D0E74A
:103AA0000898029B05996A4611604021002200F0A7
:103AB00063FE20B1FFE703208DF827000BE0089993
:103AC000202081F83D0000208DF8270003E002202F
:103AD0008DF82700FFE79DF827000AB080BD0000A1
:103AE000FFE7FEE780B592B00020119010900F9094
:103AF0000E900D90FFE700200C9043F63000C4F2CA
:103B00000200016841F004010160006800F0040057
:103B10000C900C98FFE7FFE700200B9043F6300075
:103B2000C4F20200016841F080010160006800F009
:103B300080000B900B98FFE7FFE700200A9043F608
:103B40003000C4F20200016841F001010160006828
:103B500000F001000A900A98FFE7FFE700200990B3
:103B600043F63000C4F20200016841F00201016036
:103B7000006800F0020009900998FFE70020C4F2F5
:103B80000200019041F62241009100220692FEF7C8
:103B9000D5FA069A40F20040C4F2020003904FF4B6
:103BA00070410291FEF7CAFA069A40F60000C4F28C
:103BB0000200079080210491FEF7C0FA0699079849
:103BC0004FF400520D924FF404120E920F910DA972
:103BD0000891FEF701F9009B0198069A08990D9348
:103BE000012305930E930F921092FEF7F5F8DDF87E
:103BF00008C00398059B069A0899CDF834C00E9327
:103C00000F921092FEF7E8F8069A079808994FF479
:103C100010730D930E920F92FEF7DEF8DDF810C0D0
:103C2000059B069A07980899CDF834C00E930F9219
:103C30001092FEF7D1F812B080BD000080B58EB0B2
:103C4000002100910D910C910B910A91099108911D
:103C5000079106910591049103910291019140F21F
:103C60007410C2F200004FF0804202604160816037
:103C700041F63F12C0F20102C26001618021816100
:103C8000FFF7F4F818B1FFE7FEF77CF8FFE74FF411
:103C900080500A9040F27410C2F200000AA9FFF7A7
:103CA00091F918B1FFE7FEF76DF8FFE740F27410E5
:103CB000C2F20000FFF7B8FC18B1FFE7FEF762F8A8
:103CC000FFE700200890099040F27410C2F2000053
:103CD00008A9FFF74BF818B1FFE7FEF753F8FFE725
:103CE0006020019048F6A0400290002203920592C5
:103CF00040F27410C2F2000001A9FFF7F3FB18B103
:103D0000FFE7FEF73FF8FFE740F27410C2F2000051
:103D1000FFF75CFB0EB080BD80B58EB00021009136
:103D20000D910C910B910A910991089107910691BF
:103D30000591049103910291019140F2BC10C2F2ED
:103D4000000040F20042C4F2000202604160816063
:103D50004FF6FF72C26001618161FFF787F818B109
:103D6000FFE7FEF70FF8FFE74FF480500A9040F2AC
:103D7000BC10C2F200000AA9FFF724F918B1FFE74E
:103D8000FEF700F8FFE740F2BC10C2F20000FFF7B8
:103D90004BFC18B1FFE7FDF7F5FFFFE700200890A7
:103DA000099040F2BC10C2F2000008A9FEF7DEFF45
:103DB00018B1FFE7FDF7E6FFFFE760200190002262
:103DC00002920392059240F2BC10C2F2000001A9D7
:103DD000FFF788FB18B1FFE7FDF7D4FFFFE740F2DC
:103DE000BC10C2F20000FFF7F1FA0EB080BD000077
:103DF00080B58EB0002100910D910C910B910A912C
:103E000009910891079106910591049103910291FE
:103E1000019140F20420C2F2000040F60002C4F218
:103E200000020260416081604FF6FF72C260016172
:103E30008161FFF71BF818B1FFE7FDF7A3FFFFE76C
:103E40004FF480500A9040F20420C2F200000AA908
:103E5000FFF7B8F818B1FFE7FDF794FFFFE740F26E
:103E60000420C2F20000FFF7DFFB18B1FFE7FDF707
:103E700089FFFFE700200890099040F20420C2F279
:103E8000000008A9FEF772FF18B1FFE7FDF77AFFFF
:103E9000FFE760200190002202920392059240F217
:103EA0000420C2F2000001A9FFF71CFB18B1FFE7D4
:103EB000FDF768FFFFE740F20420C2F20000FFF7C1
:103EC00085FA0EB080BD000080B582B040F24C2073
:103ED000C2F20000019044F20041C4F2000101600E
:103EE0004FF4E131416000218160C16001610C2229
:103EF00042618161C161FFF7B5FC18B1FFE7FDF7D1
:103F000041FFFFE702B080BDFFE7FEE7FFE7FEE706
:103F100088B0079006910592079800F0070004907A
:103F20000498C0F10700052803D3FFE7042001909F
:103F300004E00498C0F107000190FFE701980390A6
:103F400004980430062803D8FFE70020009003E01F
:103F5000049803380090FFE70098029006980399B0
:103F6000012202FA01F101390840029B98400599AB
:103F70009A40013A1140084308B07047704700006A
:103F80007047000080B582B0009000980138B0F111
:103F9000807F03D3FFE70120019019E000980138EA
:103FA0004EF21401CEF2000108604FF0FF300F21F5
:103FB00000F06EFC4EF21801CEF200010020086005
:103FC0004EF21002CEF20002072111600190FFE7CD
:103FD000019802B080BD000080B5FEF7CDF880BD2D
:103FE00080B594B008A83021FCF726FA002007908D
:103FF0000690059004900390FFE70020029043F69E
:104000004000C4F20200016841F080510160006884
:1040100000F0805002900298FFE7FFE70020019037
:1040200047F20000C4F200000168022262F38F31FF
:104030000160006800F4404001900198FFE7022011
:10404000089001210B9110210C910E9000210F91ED
:10405000082110914821119112900720139008A86F
:10406000FEF714FB18B1FFE7FDF78CFEFFE70F200A
:10407000039002210491002005904FF48052069293
:10408000079003A8FEF732F918B1FFE7FDF77AFEB3
:10409000FFE714B080BD00004EF68851CEF200015B
:1040A000086840F4700008607047000080B540F276
:1040B000BC10C2F20000FFF74BF880BD83B0029045
:1040C000019102980068009002980021C4F2010159
:1040D00088421DD0FFE70298B0F1804F18D0FFE76B
:1040E000029840F20041C4F20001884210D0FFE77C
:1040F000029840F60001C4F20001884208D0FFE7B0
:10410000029840F60041C4F2000188420AD1FFE75C
:10411000009820F0700000900198416800980843D2
:104120000090FFE702980021C4F20101884235D0D7
:10413000FFE70298B0F1804F30D0FFE7029840F2DD
:104140000041C4F20001884228D0FFE7029840F6FF
:104150000001C4F20001884220D0FFE7029840F637
:104160000041C4F20001884218D0FFE7029844F2EF
:104170000001C4F20101884210D0FFE7029844F226
:104180000041C4F20101884208D0FFE7029844F6DA
:104190000001C4F2010188420AD1FFE7009820F42F
:1041A000407000900198C168009808430090FFE7B4
:1041B000009820F080000199496908430090009818
:1041C00002990860019880680299C86201980068A5
:1041D0000299886202980021C4F20101884205D147
:1041E000FFE70198006902990863FFE7029901203F
:1041F000486103B07047000084B0039002910192BF
:10420000029800F01F01012088400090009A039955
:10421000086A904308620198029901F01F0100FAB0
:1042200001F20399086A1043086204B07047000065
:1042300085B00490039102920193049880680090E5
:10424000009820F47F40009003980299019A41EA77
:104250000221014300980843009000980499886067
:1042600005B0704783B00290019102988068009079
:10427000009820F07000009001980099084340F0E9
:104280000700009000980299886003B07047000012
:1042900085B0049003910499086A20F00100086237
:1042A0000498006A0190049840680090049880691E
:1042B0000290029820F070000290029820F0030013
:1042C000029003980168029808430290019820F038
:1042D00002000190039881680198084301900498B6
:1042E0000021C4F2010188420ED1FFE7019820F0BD
:1042F000080001900398C168019808430190019853
:1043000020F004000190FFE704980021C4F20101AD
:10431000884213D1FFE7009820F480700090009845
:1043200020F40070009003984169009808430090C1
:1043300003988169009808430090FFE7009804996A
:10434000486002980499886103984068049948631A
:1043500001980499086205B07047000085B0049088
:1043600003910499086A20F0100008620498006A1A
:104370000190049840680090049880690290029827
:1043800020F4E0400290029820F4407002900398DC
:104390000168029840EA01200290019820F0200074
:1043A000019003988168019840EA011001900498F7
:1043B0000021C4F2010188420FD1FFE7019820F0EB
:1043C000800001900398C168019840EA01100190B3
:1043D000019820F040000190FFE704980021C4F20A
:1043E0000101884215D1FFE7009820F48060009019
:1043F000009820F40060009003984169009840EA1A
:104400008100009003988169009840EA8100009043
:10441000FFE700980499486002980499886103981E
:1044200040680499886301980499086205B0704750
:1044300085B0049003910499086A20F480700862A2
:104440000498006A01900498406800900498C0693C
:104450000290029820F070000290029820F0030071
:10446000029003980168029808430290019820F492
:104470000070019003988168019840EA0120019042
:1044800004980021C4F2010188420FD1FFE701988E
:1044900020F4006001900398C168019840EA01206F
:1044A0000190019820F480600190FFE704980021BA
:1044B000C4F20101884215D1FFE7009820F4805032
:1044C0000090009820F400500090039841690098F3
:1044D00040EA0110009003988169009840EA0110B9
:1044E0000090FFE700980499486002980499C86119
:1044F000039840680499C86301980499086205B05C
:104500007047000085B0049003910499086A20F474
:10451000805008620498006A0190049840680090F6
:104520000498C0690290029820F4E040029002983A
:1045300020F44070029003980168029840EA01203C
:104540000290019820F4005001900398816801982E
:1045500040EA0130019004980021C4F20101884230
:104560000BD1FFE7009820F4804000900398416948
:10457000009840EA81100090FFE700980499486095
:1045800002980499C86103984068049908640198E6
:104590000499086205B0704785B0049003910292B7
:1045A0000498006A00900499086A20F001000862EB
:1045B000049880690190019820F0F0000190029920
:1045C000019840EA01100190009820F00A00009044
:1045D0000399009808430090019804998861009815
:1045E0000499086205B0704785B004900391029267
:1045F0000499086A20F0100008620498806901900C
:104600000498006A0090019820F47040019002998B
:10461000019840EA01300190009820F0A00000903D
:104620000399009840EA011000900198049988616C
:1046300000980499086205B07047000080B586B004
:10464000059005980068006920F44050059A1168AB
:10465000D26810430861059988680B694A69C9697D
:10466000184310430843049005980068C06849F255
:104670000C6188430499084305990968C860059846
:104680000068406920F44070059A116892691043EF
:1046900048610598006841F20001C4F201018842B6
:1046A00009D0FFE70598006841F20041C4F201011A
:1046B000884204D1FFE7FDF763FF039003E0FDF7B5
:1046C0004DFF0390FFE70598C069B0F5004F29D171
:1046D000FFE703981921A0FB0101059A13680293D3
:1046E00053685A00DB0FFBF723FE0299864648F217
:1046F0001F53C5F2EB13AEFB0320420910014FF02C
:10470000640C02FB1CEC322202EBCC02A2FB033253
:10471000F82303EA521300EB4300C2F342121044A1
:10472000886026E003981921A0FB0101059A13680F
:10473000019353689A009B0FFBF7FAFD0199844699
:1047400048F21F52C5F2EB12ACFB02304309642061
:1047500003FB10CC322000EB0C10A0FB0202F02077
:1047600000EA521000EB0310C2F3431210448860B9
:10477000FFE706B080BD000080B588B0DDF828C036
:10478000069005918DF813200393FFE706980068C3
:10479000006805990840401AB0FA80F040099DF879
:1047A0001310884249D1FFE70A980130002843D00E
:1047B000FFE70A9840B1FFE7FDF7D8FC0399401ADC
:1047C0000A99884237D9FFE7FFE7FFE706980068B4
:1047D00050E8030F20F4D0700290FFE7029906988A
:1047E000026842E803100028F0D1FFE7FFE7FFE787
:1047F000FFE70698006850E8050F20F001000190DF
:10480000FFE701990698026842E805100028F0D1F8
:10481000FFE7FFE70699202081F83D00069981F81F
:104820003E00FFE70699002081F83C00FFE70320E7
:104830008DF81F0005E0FFE7A8E700208DF81F00B6
:10484000FFE79DF81F0008B080BD0000FFE7FEE70E
:1048500081B08DF803009DF9030000280ED4FFE716
:104860009DF9031001F01F02012090404A094EF209
:104870000011CEF2000141F82200FFE701B07047BD
:104880004EF60C50CEF200000068C0F302207047D4
:1048900082B08DF8070000919DF9070000280AD426
:1048A000FFE7009800019DF907104EF20042CEF29A
:1048B000000288540BE0009800019DF8071001F0F9
:1048C0000F014EF61452CEF200028854FFE702B0F8
:1048D0007047000083B00290029800F0070000903B
:1048E0004EF60C51CEF200010868019001984FF687
:1048F000FF02104001900198009A40EA0220002235
:10490000C0F2FA52104301900198086003B070475A
:1049100080B582B00190009140F24C20C2F20000BC
:1049200001A901224FF6FF73FFF732F8019802B098
:1049300080BD000080B584B0002001900390FDF799
:1049400029FCFFF74DFBFFF7CDF8FFF777F9FFF7ED
:10495000E3F9FFF74DFAFFF7B7FA01992C20C4F2FB
:104960000000006840083422C4F20002106040F2E7
:104970007410C2F20000FEF7ADFE01980290FFE74E
:104980002C20C4F20000016864390160006841F223
:104990007071884209D8FFE72C21C4F2000141F66A
:1049A0004010C0F201000860FFE72C20C4F20000B4
:1049B000006840083421C4F2000108606420FDF75B
:1049C000E9F945F23C30C0F60000FBF729FDD7E7D6
:1049D0005FEA400C08BF91F0000F4FEA8C234FEACA
:1049E000C12243EA51514FEA1C5018BF00F5F04074
:1049F0004FEA300018BF41F000415FEA6C5C00F004
:104A00002980BCF1FF3F08BF40F080407047130C85
:104A100006BF12044FF0100C4FF0000C130E04BF31
:104A200012020CF1080C130F04BF12010CF1040C5C
:104A3000930F04BF92000CF1020CD30F04BF52007D
:104A40000CF1010C11464FF00002A0F11F00A0EB89
:104A50000C00704711F0004F08BF704731F0004163
:104A60003FF4D5AF0B0C06BF09044FF0100C4FF00C
:104A7000000C0B0E04BF09020CF1080C0B0F04BF55
:104A800009010CF1040C8B0F04BF89000CF1020C1E
:104A9000CB0F04BF49000CF1010CCCF1200322FA2A
:104AA00003F341EA030102FA0CF2A0EB0C0000F15F
:104AB0000100704723F07F4720F07F4C80EA03001D
:104AC00000F00040ACEB070303F57C5303F1FF0358
:104AD0002DE9804909B44FEA144324EA03484FEA18
:104AE000154B25EA0B4E0FF2042606EB13273E78F2
:104AF00003FB0667C7F5000707FB06F64FEAD64635
:104B000006F102064FEA543707FB066CCCF1005C55
:104B10004FEA1C472CEA074C0CFB06F507FB06F492
:104B200004EB15464FEA961649085FEA320234BF95
:104B300000204FF000404FEAD13706FB07FC4FEA58
:104B40001C4C0CFB0BF7D21B03FB0CF761EB0701B2
:104B50000CFB0EF7B0EB074072EB17420CFB08F7AB
:104B600034BFA2EB0742B2EB074261EB17414FEAB9
:104B70000C444FEA910706FB07FC4FEA1C4C0CFB68
:104B80000BF7B0EBC74072EB573203FB0CF734BFA7
:104B9000A2EBC742B2EBC74261EB57310CFB0EF7F9
:104BA000B0EBC70072EB57720CFB08F734BFA2EBF7
:104BB000C702B2EBC70261EB57714FEA816141EA6C
:104BC00092114FEA826242EA90124FEA806004EB4F
:104BD000CC04039F4FEAD13706FB07FC4FEA1C4C7D
:104BE0000CFB0BF7D21B03FB0CF761EB07010CFB73
:104BF0000EF7B0EB074072EB17420CFB08F734BF1F
:104C0000A2EB0742B2EB074261EB17414FEA8C552A
:104C100004EB9C244FEA910706FB07FC4FEA1C4C6F
:104C20000CFB0BF7B0EBC74072EB573203FB0CF7F2
:104C300034BFA2EBC742B2EBC74261EB57310CFB6A
:104C40000EF7B0EBC70072EB57720CFB08F734BFDE
:104C5000A2EBC702B2EBC70261EB57714FEA816169
:104C600041EA92114FEA826242EA90124FEA806072
:104C700015EB4C2544F100044FEAD13706FB07FC45
:104C80004FEA1C4C0CFB0BF7D21B03FB0CF761EB40
:104C900007010CFB0EF7B0EB074072EB17420CFB61
:104CA00008F734BFA2EB0742B2EB074261EB1741B2
:104CB0004FEA813141EA92414FEA823242EA904220
:104CC0004FEA80304FEA0C7615EB1C1544F10004D6
:104CD00048EA03434EEA0B484FF0000EB2EB080CD3
:104CE00071EB030724BF624639464EEB0E0E4FF0C0
:104CF000000B0018524149414BEB0B0BB2EB080C77
:104D000071EB03077BF1000B24BF624639464EEB83
:104D10000E0E4FF0000B0018524149414BEB0B0BAC
:104D2000B2EB080C71EB03077BF1000B24BF62466A
:104D300039464EEB0E0E51EA020718BF46F0010647
:104D400016EB0E7655F1000254F1000103D5BDE8D3
:104D50008901BDE80088BDE88901BDE80048B619B1
:104D6000524141EB0101A3F10103704780807F7E36
:104D70007D7C7B7A797877767675747372717170D1
:104D80006F6E6E6D6C6C6B6A6A6968686766666583
:104D90006464636362616160605F5F5E5E5D5D5C11
:104DA0005C5B5B5A5A595958585757565655555582
:104DB0005454535352525251515050504F4F4F4EE2
:104DC0004E4D4D4D4C4C4C4B4B4B4A4A4A49494930
:104DD0004848484747474746464645454544444472
:104DE0004443434343424242424141419C46002B9B
:104DF00030D477002BD04FEA37071CB503B44FF0FF
:104E000010004FF01001BAF1000F06D0BCF1000FF6
:104E1000DCBF40F0080040F008014FF000000FBC7C
:104E2000BDE810400BF1010BBBF1010F08BF5FEAB9
:104E3000170722BF12F1010211F101014FF00041E9
:104E400043F1000300F0004043EA00007047F9D34B
:104E50005708D0E746EA06464FEA164613F1400FD8
:104E60001FDD13F1200FDFBF16430A460021203358
:104E70005B42BED0C3F1200746EA06464FEA16461B
:104E800002FA07F746EA070622FA03F2C3F12007FF
:104E900001FA07F742EA070221FA03F14FF0000393
:104EA000A7E746EA020646EA06464FEA164646EAFB
:104EB0000106BCBF46EA0646360C4FF000034FF031
:104EC00000024FF0000194E72DE9804C70B49A463F
:104ED000934691E8380007C831EA400C48BF34EAED
:104EE000430C03D5FFF7E6FDFFF780FFF0BCBDE8FC
:104EF000008C2DE9804C70B49A46934691E83800B6
:104F000007C810F0804F08BF13F0804F03D100F0A6
:104F100005F8FFF76BFFF0BCBDE8008C20F07F4781
:104F200023F07F4C80EA030000F0004007EB0C0305
:104F3000A3F57C53A3F1FE0392F0000F00F0B380C1
:104F400095F0000F00F077802DE901494FEA1140FC
:104F500021EA00484FEA144624EA064700FB06FC13
:104F600008FB06F607FB08F818EB06484CEB164C56
:104F700000FB07F718EB07484CEB17404FEA124BC2
:104F800022EA0B4E4FEA154625EA06470BFB06FCC4
:104F90000EFB06F607FB0EFE1EEB064E4CEB164C08
:104FA0000BFB07F71EEB074E4CEB174B18EB0B08F0
:104FB00040F1000018EB0E0B58EB000840F1000028
:104FC0008F1A4FF000014FF000063CBFC943661B2B
:104FD00014BFB5EB040C00213CBFC943F61B4FEADC
:104FE000174427EA04454FEA1C472CEA074C04FB08
:104FF000076205FB07F70CFB05F616EB074642EBCD
:10500000174204FB0CFC16EB0C4642EB1C421BEB5C
:10501000060658EB020241414EEA8E0E46EA9E0613
:1050200001D5BDE80189B619524141EB0101A3F157
:105030000103BDE801894FEA144524EA05464FEA19
:10504000114721EA074C05FB07F406FB07F70CFBA9
:1050500006F111EB074144EB174405FB0CFC11EB87
:105060000C4144EB1C444FEA124722EA074C05FB73
:1050700007F206FB07F70CFB06F616EB074642EBBA
:10508000174205FB0CFC16EB0C4642EB1C456A185C
:1050900054F1000148BF7047B619524141EB01017C
:1050A000A3F10103704795F0000F37D04FEA11428A
:1050B00021EA02464FEA144724EA074C02FB07F1B3
:1050C00006FB07F70CFB06F414EB074441EB174112
:1050D00002FB0CFC14EB0C4441EB1C414FEA15475E
:1050E00025EA074C02FB07F506FB07F70CFB06F663
:1050F00016EB074645EB174502FB0CFC16EB0C467E
:1051000045EB1C42121951F1000148BF7047B61916
:10511000524141EB0101A3F1010370474FEA1445ED
:1051200024EA05464FEA114721EA074C05FB07F13F
:1051300006FB07F70CFB06F212EB074241EB1741A7
:1051400005FB0CFC12EB0C4251EB1C414FF000062E
:1051500048BF7047921841EB0101A3F1010370476A
:1051600003B401984100009850EAC12018BF042000
:105170004A0D18BF40F0010040F2FF72B2EB515FE0
:1051800008BF40F00200012808BF052002B07047A8
:1051900030380A2801D201207047002070470000F3
:1051A00010B500290AD00878002807D005487844AF
:1051B000FCF7EAFC002801D0002010BD024878442A
:1051C00010BD0000B6010000AE01000010B50029BE
:1051D0000AD00878002807D005487844FCF7D4FCAA
:1051E000002801D0002010BD0248784410BD000006
:1051F000A60100009E010000F1EE100A4FF6FF71BB
:10520000C0F2C03120EA010040F04070E1EE100A27
:105210007047FBF757BDFBF78BBE00000000000096
:1052200000000000303132333435363738394142EE
:1052300043444546403058003031323334353637F8
:1052400038396162636465664030780004000008A4
:1052500000000000000000020001000010303132A8
:105260003334353637383961626364656678700087
:10527000303132333435363738394142434445468C
:105280005850003A7474003A7474003A7474000010
:1052900002400000000000A00000000005400000E7
:1052A000000000C8000000000C4000000000409C0E
:1052B00000000000194000000020BCBE00000000FB
:1052C00034400000BFC91B8E00000004B540000040
:1052D000504BCFD06607E2CF010000006C410000C8
:1052E0003E8251AADFEEA73401000000D94200003F
:1052F000DCB5A0E23A301F97FFFFFFFFB445000086
:10530000FD25A0C8E9A3C14FFFFFFFFFFF3F00003D
:105310000000008000000000FF3F0000000000804F
:105320000000000000000000000000000102030473
:10533000060708090000000001020304416D702007
:105340000A0000009054000800000020180000002F
:10535000D0010008A85400081800002080080000B0
:10536000EC0100081C00000043000000F8FFFFFFF4
:105370000C0000000E0000000F0000002E000000D6
:105380001001000043000000F8FFFFFF0040404014
:105390004040404040404141414141404040404008
:1053A00040404040404040404040404040050202B4
:1053B0000202020202020202020202020220202073
:1053C00020202020202020020202020202029090CF
:1053D00090909090101010101010101010101010CD
:1053E0001010101010101010020202020202888821
:1053F000888888880808080808080808080808082D
:105400000808080808080808020202024000000014
:10541000000000000000000000000000000000008C
:10542000000000000000000000000000000000007C
:10543000000000000000000000000000000000006C
:10544000000000000000000000000000000000005C
:10545000000000000000000000000000000000004C
:10546000000000000000000000000000000000003C
:10547000000000000000000000000000000000002C
:10548000000000000000000000000000000000001C
:105490000000000000000000000000000024F400F4
:0854A0000100000010000000F3
:040000050800019559
:00000001FF
